:020000040800F2
:1000000090060020CD0100086D1100086F11000856
:1000100073110008771100087B1100080000000030
:100020000000000000000000000000007F11000838
:1000300081110008000000008311000885110008EC
:10004000E7010008E7010008E7010008E7010008F0
:10005000E7010008E7010008E7010008E7010008E0
:10006000E7010008E7010008E7010008E7010008D0
:10007000E7010008E7010008E7010008E7010008C0
:10008000E7010008E7010008E7010008E7010008B0
:10009000E7010008E7010008E7010008E7010008A0
:1000A000E7010008E7010008E7010008E701000890
:1000B000E7010008E7010008E7010008E701000880
:1000C000E7010008E7010008E7010008E701000870
:1000D000E7010008E7010008E7010008E701000860
:1000E000E7010008E7010008E7010008E701000850
:1000F000E7010008E7010008E7010008E701000840
:10010000E7010008E7010008E7010008E70100082F
:10011000E7010008E7010008E7010008E70100081F
:10012000E7010008E7010008E7010008E70100080F
:1001300000F002F800F03AF80AA090E8000C8244BF
:100140008344AAF10107DA4501D100F02FF8AFF29C
:10015000090EBAE80F0013F0010F18BFFB1A43F0A5
:1001600001031847BC140000DC140000103A24BF3F
:1001700078C878C1FAD8520724BF30C830C144BF0C
:1001800004680C607047000000230024002500264E
:10019000103A28BF78C1FBD8520728BF30C148BFEA
:1001A0000B6070471FB51FBD10B510BD01F001FAFF
:1001B0001146FFF7F7FF00F0A1FF01F01FFA03B4AB
:1001C000FFF7F2FF03BC01F023FA00000948804763
:1001D00009480047FEE7FEE7FEE7FEE7FEE7FEE729
:1001E000FEE7FEE7FEE7FEE704480549054A064B41
:1001F00070470000E902000831010008900000206B
:100200009006002090020020900200200CB50020F3
:10021000019000906B48006840F4803069490860A4
:1002200000BF6848006800F4003000900198401C4E
:100230000190009818B90198B0F5A06FF1D161480C
:10024000006810F4003F02D00120009001E000207F
:1002500000900098012842D15B48006840F01000EF
:10026000594908600846006820F003000860084605
:10027000006840F0020008605248406851494860F8
:100280000846406848600846406840F4806048601E
:100290000846406820F47C1048600846406840F4F6
:1002A000E81048600846006840F08070086000BFB1
:1002B0004448006810F0007FFAD04248406820F0BF
:1002C0000300404948600846406840F0020048602A
:1002D00000BF3C48406800F00C000828F9D10CBD74
:1002E00010B5FFF793FF10BD10B53648006840F019
:1002F00001003449086008464068344908403149E3
:10030000486008460068324908402E49086008469F
:10031000006820F4802008600846406820F4FE0051
:1003200048604FF41F008860FFF7DAFF4FF000606D
:100330002849086010BD10B5002100200022214B83
:100340005B6803F00C0121B1042906D0082928D1EB
:1003500007E0214B214C236027E01F4B1F4C2360FB
:1003600023E0184B5B6803F47010164B5B6803F4D2
:100370008032022303EB904022B9194B4343174CC0
:1003800023600DE00F4B5B6813F4003F04D0144B67
:100390004343124C236003E00F4B43430F4C236055
:1003A00003E00D4B0D4C236000BF00BF054B5B68A5
:1003B000C3F303130B4CE15C084B1B68CB40074CA9
:1003C000236010BD00100240002002400000FFF832
:1003D000FFFFF6FE08ED00E000127A0000000020AA
:1003E00000093D000400002010B50446CA488442BC
:1003F00008D10121042000F027FB0021042000F097
:1004000023FB46E0C548844208D10121082000F0C2
:100410001BFB0021082000F017FB3AE0C048844293
:1004200008D10121102000F00FFB0021102000F066
:100430000BFB2EE0BB48844208D10121202000F0B4
:1004400003FB0021202000F0FFFA22E0B64884429E
:1004500008D10121402000F0F7FA0021402000F0EF
:10046000F3FA16E0B148844208D10121802000F05F
:10047000EBFA0021802000F0E7FA0AE0AC48844261
:1004800007D10121801500F0DFFA0021A01500F04E
:10049000DBFA10BD10B50121084600F0D5FA0021A5
:1004A000012000F0D1FA10BD2DE9F04102460025EF
:1004B0000026002000230024002791F803C00CF040
:1004C0000F0591F803C01CF0100F03D091F802C083
:1004D0004CEA050591F800C0BCF1000F31D014685A
:1004E00000202BE04FF0010C0CFA00F3B1F800C033
:1004F0000CEA03069E4220D183004FF00F0C0CFA49
:1005000003F7BC4305FA03FC4CEA040491F803C06A
:10051000BCF1280F06D14FF0010C0CFA00FCC2F818
:1005200014C00AE091F803C0BCF1480F05D14FF0A8
:10053000010C0CFA00FCC2F810C0401C0828D1D3F2
:100540001460B1F800C0BCF1FF0F34DD5468002026
:100550002EE000F1080C4FF0010808FA0CF3B1F896
:1005600000C00CEA03069E4221D183004FF00F0C1D
:100570000CFA03F7BC4305FA03FC4CEA040491F8B7
:1005800003C0BCF1280F05D100F1080C08FA0CF8E3
:10059000C2F8148091F803C0BCF1480F07D100F1F4
:1005A000080C4FF0010808FA0CF8C2F81080401C43
:1005B0000828CED35460BDE8F0814FF6FF7101806A
:1005C000022181700421C1707047024600209368A7
:1005D0000B4201D0012000E00020704701468868EE
:1005E00080B2704702460020D3680B4201D0012040
:1005F00000E0002070470146C86880B27047016182
:100600007047416170470AB1016100E04161704784
:10061000C16070474FF480320A4382618161826118
:1006200082698269704702460020424B18684FF683
:100630008073184040EA021008433E4B1860704730
:100640003D49C8617047F0B50A46002300240021E7
:10065000002500F00046B6F1004F02D1354EF16999
:1006600001E0344E7168C0F3034583B200F44016D4
:10067000B6F5401F08D121F070612E4E766826F045
:1006800070662C4F7E6012E000F48016B6F5801F75
:1006900006D1032606FA05F4A14341F0706106E095
:1006A000460D360103FA06F6B14341F0706122B1FE
:1006B000460D360103FA06F6314300F00046B6F166
:1006C000004F02D11B4EF16101E01A4E7160F0BD86
:1006D00030B500228B071C0F0F2303FA04F2154BD1
:1006E00008338C1053F824309343124C08348D1087
:1006F00044F8253023468C1053F824308C07240FFF
:1007000000FA04F423430B4C08348D1044F82530D0
:1007100030BD0A490860704700080140000C0140E4
:10072000001001400014014000180140001C01406D
:10073000002001400000014000002042DC00204277
:10074000DD48006840F00100DB4908600846406869
:10075000DA490840D849486008460068D849084046
:10076000D54908600846006820F4802008600846E3
:10077000406820F4FE0048604FF41F008860704716
:10078000CD49096821F48031CB4A116011460968CE
:1007900021F480211160B0F5803F03D0B0F5802FA7
:1007A0000ED106E0C449096841F48031C24A1160A3
:1007B00007E0C149096841F4A021BF4A116000E087
:1007C00000BF00BF704710B5014600220023002083
:1007D0004A11012A02D1B84C236806E0022A02D14C
:1007E000B54C236A01E0B44C636A01F01F02012496
:1007F00094401C4201D0012000E0002010BD38B51B
:10080000002000900024002500BF3120FFF7DBFF0F
:1008100005460098401C00900098B0F5A06F01D0EC
:10082000002DF2D03120FFF7CEFF08B1012400E007
:100830000024204638BD014600209F4A106820F061
:10084000F80040EAC100106070479E490860704798
:1008500002460020984B586820F47C1042EA0103BD
:100860001843954B58607047964908667047014693
:100870000020914A506820F0030008435060704700
:100880008D48406800F00C007047014600208A4AFD
:10089000506820F0F0000843506070470146002087
:1008A000854A506820F4E060084350607047014674
:1008B0000020814A506820F4605040EAC100506036
:1008C000704729B17C4A527A02437B4B5A7204E04A
:1008D000794A527A8243784B5A7270477A49086053
:1008E000704701460020744A506820F44040084395
:1008F000506070470021754A11706F4A82F82010CD
:10090000012802D0042808D103E001216F4A1170A8
:1009100004E005216D4A117000E000BF00BF704780
:100920006B49086070476449096A0143624A116271
:100930007047674944390860704730B5002100228C
:10094000002400235C4D6D6805F00C0121B10429E1
:1009500005D0082923D105E05E4D056022E05D4DFC
:1009600005601FE0544D6D6805F47012524D6D68BE
:1009700005F48034022505EB92421CB9564D5543CF
:1009800005600BE04C4D6D6815F4003F03D0524DEF
:100990005543056002E04F4D5543056002E04D4D63
:1009A000056000BF00BF444D6D6805F0F001090906
:1009B0004A4D6B5C0568DD4045603F4D6D6805F450
:1009C000E061090A454D6B5C4568DD4085603A4D44
:1009D0006D6805F46051C90A404D6B5C4568DD40A7
:1009E000C560354D6D6805F44041890B3C4D6B5C2D
:1009F000C568B5FBF3F5056130BD29B12E4A5269D2
:100A000002432D4B5A6104E02B4A526982432A4B20
:100A10005A61704729B1284A92690243264B9A616C
:100A200004E0254A92698243234B9A61704729B1B9
:100A3000214AD2690243204BDA6104E01E4AD2699E
:100A400082431D4BDA61704729B11B4AD2680243C9
:100A5000194BDA6004E0184AD2688243164BDA6018
:100A6000704729B1144A12690243134B1A6104E01A
:100A7000114A12698243104B1A6170471449403978
:100A8000086070470F49C86470470B49C8717047C8
:100A90000948406A40F08070074948627047014643
:100AA0000020054A92680A4201D0012000E000209F
:100AB0007047014988727047001002400000FFF83B
:100AC000FFFFF6FE00004242D800424220100240E2
:100AD0008004424200127A0000093D001400002008
:100AE0002400002030B943F2DB014FF0204242F8ED
:100AF000201005E043F2D2014FF0204242F82010CE
:100B00006FF07042411C4FF0204343F82120114602
:100B10001A4602EB8002C2F80411704710280AD16D
:100B200018214FF020421166402151664FF0FC31F0
:100B30009166D16610E01821F84A11604FF040012B
:100B40004FF02042C2F884104FF0FC31F44A11609B
:100B50004FF02042C2F88C1070471820F14908600D
:100B60004FF000004FF02041C1F8A4004FF0FC30DE
:100B7000ED49086001F10401086001F10401086019
:100B80007047D0E901121143C26811430269114351
:100B90004269114382691143C2691143026A1143D8
:100BA000426A1143826A1143C26A1143026B1143C4
:100BB0004FF02043026843F822108168082908D1C9
:100BC0001A46016852F8211041F04001026843F8CA
:100BD0002210416B0968426B526841EA0211426B74
:100BE000926841EA0221426B928941EA0241426BDA
:100BF000128A41EA0251426B127D41EA0261426B64
:100C0000926911430268521C4FF0204343F82210AE
:100C1000C16AB1F5804F1AD1816B0968826B526845
:100C200041EA0211826B926841EA0221826B128AC8
:100C300041EA0251826B127D41EA0261826B926944
:100C40001143026803EB8202C2F8041108E06FF05E
:100C500070414FF02043026803EB8202C2F8041196
:100C6000704730B5002100220023446844F0080496
:100C700085682C43C5682C4305692C43456944EAC3
:100C80004524856944EA4531C4692468C5696D68AD
:100C900044EA0524C5692D8944EA0544C5692D7BCC
:100CA00044EA0562046A2468056A6D6844EA05241A
:100CB000056A2D8944EA0544056A2D7B44EA0563EB
:100CC0000468102C05D14FF020442166A266E3662B
:100CD00007E0924C21604FF02044C4F88820934CE8
:100CE000236030BD016841F01001426841EA4221B1
:100CF000826841EA42318B4A1160C1680968C26862
:100D0000526841EA0221C268128941EA0241C2687E
:100D1000127B41EA0261844A116001690968026933
:100D2000526841EA02210269128941EA02410269DC
:100D3000127B41EA02617E4A116041690968426999
:100D4000526841EA02214269128941EA024142693C
:100D5000127B41EA02614FF02042C2F8B0107047A6
:100D6000002101600221416000218160C1600161B8
:100D700041618161C16101624FF48051416249006A
:100D800081620021C16201630F21426B1160426BDD
:100D90005160FF21426B91600F21426BD160426B29
:100DA0001161426B51610021426B91610F21826B95
:100DB0001160826B5160FF21826B91600F21826B09
:100DC000D160826B1161826B51610021826B9161F4
:100DD000704710210160002141608160C1600161A4
:100DE00041618161FC21C2691160C2695160C269BF
:100DF0009160C269D160026A1160026A5160026A40
:100E00009160026AD1607047002101604160816099
:100E1000FC21C2681160C2685160C2689160C268FA
:100E2000D1600269116002695160026991600269D2
:100E3000D1604269116042695160426991604269C2
:100E4000D160704751B14FF0204252F8202042F05B
:100E500001024FF0204343F8202009E04FF02042E8
:100E600052F82020334B1A404FF0204343F8202003
:100E7000704799B1102808D14FF02042126E42F00D
:100E800004024FF020431A661DE0244A126842F023
:100E900004024FF02043C3F8802014E0102809D149
:100EA0004FF02042126E234BDB1E1A404FF02043BE
:100EB0001A6608E0194A12681F4B02EA03024FF053
:100EC0002043C3F88020704740B11649096841F0BB
:100ED00004014FF02042C2F8A01008E0114909684F
:100EE000154A01EA02014FF02042C2F8A0107047F3
:100EF00099B1102808D14FF02042126E42F0400202
:100F00004FF020431A662DE0044A126842F0400276
:100F10004FF02043C3F8802024E00FE0800000A0C1
:100F2000880000A0A00000A0A80000A08C0000A0E5
:100F3000AC0000A0FEFF0F00FBFF0F00102808D13F
:100F40004FF02042126E684B1A404FF020431A6651
:100F500008E0664A1268644B02EA03024FF020433D
:100F6000C3F88020704701460020102903D14FF0BC
:100F70002042506F01E05E4A1068704710B5F2B130
:100F8000102807D14FF020435B6E0B434FF02044F5
:100F9000636632E0B0F5807F08D1564B1B6843EAA8
:100FA00001034FF02044C4F8843026E0524B1B6804
:100FB00043EA01034FF02044C4F8A4301DE0102898
:100FC00007D14FF020435B6E8B434FF020446366A4
:100FD00013E0B0F5807F08D1464B1B6823EA01037C
:100FE0004FF02044C4F8843007E0434B1B6823EAE9
:100FF00001034FF02044C4F8A43010BD10B50246E0
:1010000000200023102A03D14FF02044636E07E034
:10101000B2F5807F02D1374C236801E0364C23685B
:101020000B4201D0012000E0002010BD102807D1A4
:101030004FF02042526E8A434FF020435A6613E02D
:10104000B0F5807F08D12B4A126822EA01024FF0E6
:101050002043C3F8842007E0274A126822EA0102ED
:101060004FF02043C3F8A420704770B5024600201B
:10107000002300240025102A03D14FF02046736E70
:1010800007E0B2F5807F02D11A4E336801E01A4EB4
:10109000336803EA010403EAD10514B10DB101205C
:1010A00000E0002070BD102808D14FF02042526EA1
:1010B00022EAD1024FF020435A6613E0B0F5807F58
:1010C00008D10C4A126822EAD1024FF02043C3F83B
:1010D000842007E0084A126822EAD1024FF0204338
:1010E000C3F8A42070470000BFFF0F00800000A0DD
:1010F000940000A0840000A0A40000A0FFF7F4F872
:10110000174800684FF47A72B0FBF2F1B1F1807FBA
:1011100000D31DE021F07F40401E4FF0E0225061DF
:1011200050170F22002807DA13071D0E0D4B00F091
:101130000F04241F1D5503E013071C0E0A4B1C54FB
:1011400000BF00204FF0E02290610720106100BF37
:1011500000F024F800F088F800F00EF900BFFEE778
:101160000000002018ED00E000E400E0704700BF40
:10117000FEE700BFFEE700BFFEE700BFFEE77047E7
:10118000704770470448008820B103480088401E1B
:1011900001490880704700002A00002008B501219D
:1011A0000802FFF72AFC01216020FFF733FC102022
:1011B0008DF8030003208DF802000120ADF8000037
:1011C0006946F048FFF770F90220ADF80000694663
:1011D000EC48FFF769F94CF23370ADF800000320DA
:1011E0008DF8020018208DF803006946E648FFF7E5
:1011F0005BF94FF68070ADF800006946E148FFF7F3
:1012000053F98020ADF800006946DF48FFF74CF93C
:101210004FF40060ADF800006946DB48FFF744F981
:101220008021D948FFF7EBF94FF40061D648FFF76A
:10123000E6F94CF20301D448FFF7E1F94FF4F0610D
:10124000D048FFF7DCF90121CE48FFF7D8F9022199
:10125000CC48FFF7D4F91021CB48FFF7D0F9202173
:10126000C948FFF7CCF908BD00B597B00020019040
:1012700002900320039000200490059006900790B0
:101280000890099008200A9010200B9000200C90E4
:101290000E900F9010904FF48050119000201290FB
:1012A0004FF4804013900020149001A815901690E0
:1012B00008A8FFF766FC01210020FFF7C3FD3220DC
:1012C00000F06AF917B000BD4FF0C0421080AF4A7D
:1012D0001180704701464FF0C0400180AB48008844
:1012E000704722204FF0C04108807047A74908800E
:1012F000704710B503460C4619462020FFF7E4FF5F
:1013000021462120FFF7E0FF10BD70B504460D46D1
:1013100029462046FFF7EDFF22204FF0C04108800C
:101320009A4806880688304670BD70B50446002588
:10133000002600210846FFF7DCFFFFF7D2FF00BFC1
:1013400002E0924804806D1CB5F5963FF9D370BD5C
:1013500010B502218E48FFF754F9322000F01CF935
:1013600002218B48FFF74BF9322000F015F980215C
:101370008548FFF746F910BD10B5FFF7E9FF0121D9
:101380000020FFF7A1FF962000F006F90020FFF7EC
:10139000A1FF8049088008460088A0F5134125393F
:1013A00005D07C480088A0F5134128397ED14FF440
:1013B00080710120FFF788FF4FF4E0610220FFF702
:1013C00083FF41F230010320FFF77EFF002104205C
:1013D000FFF77AFF40F207210820FFF775FF002191
:1013E0000920FFF771FF00210A20FFF76DFF0021A0
:1013F0000C20FFF769FF00210D20FFF765FF00219A
:101400000F20FFF761FF00211020FFF75DFF07218C
:101410001120FFF759FF00211220FFF755FF00218F
:101420001320FFF751FF41F290211020FFF74CFFEE
:1014300040F227211120FFF747FF642000F0ACF8AD
:101440001D211220FFF740FF642000F0A5F84FF4A3
:10145000A8511320FFF738FF642000F09DF81821F1
:101460002920FFF731FF0D212B20FFF72DFF04214D
:101470003020FFF729FF40F207313120FFF724FF2A
:1014800002213220FFF720FF40F206213520FFF72E
:101490001BFF4FF481613620FFF716FF40F2075122
:1014A0003720FFF711FF4FF4017100E066E03820AC
:1014B000FFF70AFF40F207713920FFF705FF40F2FE
:1014C00005413C20FFF700FF40F602713D20FFF789
:1014D000FBFE00215020FFF7F7FEEF215120FFF720
:1014E000F3FE00215220FFF7EFFE40F23F115320A0
:1014F000FFF7EAFE4FF427416020FFF7E5FE0121E8
:101500006120FFF7E1FE00216A20FFF7DDFE0021E8
:101510008020FFF7D9FE00218120FFF7D5FE0021B2
:101520008220FFF7D1FE00218320FFF7CDFE0021AE
:101530008420FFF7C9FE00218520FFF7C5FE10219A
:101540009020FFF7C1FE4FF4C0619220FFF7BCFE70
:1015500003219320FFF7B8FE4FF488719520FFF721
:10156000B3FE00219720FFF7AFFE00219820FFF780
:10157000ABFE40F233110720FFF7A6FE1F20FFF756
:10158000D4FE10BD001801400014014000000260AC
:10159000001C0140280000200349088000BF0249C8
:1015A00009880029FBD170472A0000207047704746
:1015B0007047754600F028F8AE4605006946534668
:1015C00020F00700854618B020B5FEF70DFEBDE8F7
:1015D00020404FF000064FF000074FF000084FF09A
:1015E000000B21F00701AC46ACE8C009ACE8C0092B
:1015F000ACE8C009ACE8C0098D4670470446AFF3BB
:1016000000802046FEF7DBFD004870472C000020DC
:1016100001491820ABBEFEE726000200704700001B
:1016200040160008000000202C0000006C0100089B
:101630006C1600082C0000206406000088010008D9
:1016400000A24A04000000000000000001020304A0
:101650000607080900000000010203040102030458
:0C1660000607080902040608000000004C
:04000005080001CD21
:00000001FF
